:4000000080673030303030307e3030307e3030307e3030307e3030307e3030307d157d7e7e3030307d07f97e7e3030307d06e17e7e3030307e3030307e3030307d05a47e1f
:400040007d0bff7e7d0bfc7e7e3030307e3030307e3030307e3030307e3030307e3030307e3030307e303030711062fa0062e38770ef50202850402850602862e33841fe1d
:40008000fb50804e62e33855f80055f900711062e00270ef62e338627105627505627905627d0562d10750004e62d30762d00062d50062d40071c07c053662d0005004577e
:4000c0002f0828533118750900284b5131800475090062e300082860d574a04b1875090008285331187509000828a01c53301875090008283f314731ffb0065dd57460d5fa
:40010000187a30bfeb8fc9187509000828533050003f314731ffb0085dd57460d550007a30bfef188faa18711070ef62e000711062e00043e78070ef62e2007c0dbb8fffd3
:4001400050107f3030303030303030303030303030303030303030303030303030303030303030303030303030303030303030303030303030303030303030303030303030
:40018000303030303030303030303030303030303030303030303030303030303030303053746f707761746368204d6f64653a20003a002e002e30300041636375726163db
:4001c00079204d6f64653a200031207365636f6e642020202020202000312f32207365636f6e64202020202000312f3130207365636f6e6420202020004d656d6f72792096
:400200004d6f64653a20202000536176656452656164696e6720313a00536176656452656164696e6720323a00536176656452656164696e6720333a00536176656452654a
:400240006164696e6720343a00536176656452656164696e6720353a0053686f727465737452656164696e67004c6f6e6765737452656164696e673a004176674f66526541
:400280006164696e67733a20005265736f6c7574696f6e3d20202020005075736820427574746f6e2020202000536f756e642d436f6e74726f6c20200053746f7077617478
:4002c00063682020202020200030303030300053746f70576174636820446973703a00536f756e642053656e73692d20202000746976697479204d6f64653a202020004418
:400300006574656374696e672076616c3a2000536f756e642d626173656420202020004e6f20686973746f727921202020200030008fff84908500866087f04700450046e2
:400340000043004100420075fd7621772074002300214f2200270425c326002b00290f2a002f042d272e003700358636003b0039013a003300319f32003f043d003e006049
:4003800028660063056500e600e700d600b000b100b200b333b433b500b600b855b900ba10bb33bc33bd00be00c000c100c220c333c433c500c600c855c900ca30cb33cc87
:4003c00033cd00ce006c006d006e006f00ff442145554640402041154240200021062240242025362640280029062a402c202d362e40340035363640380039363a403000cb
:40040000310632403c203d363e4061006900600062006733683363006600d100d300d000d200e1fee200df00de03dd00e700ff15a270ef62000071106200006201ff70ef96
:400440006203ff620200711062020062030070ef620100620400711062049e62056070ef620760620600711062060062070170ef620501620800711062087f62098070ef2e
:40048000620b80620a007110620a00620b0070ef620900620c007110620c00620d0070ef620f00620e007110620e00620f0070ef620d00621000711062100062110070ef4c
:4004c000621300621200711062120062130070ef621100621400711062140062150070ef621700621600711062160062170070ef621500621800711062180062190070ef0c
:40050000621b00621a007110621a00621b0070ef621900621c007110621c00621d0070ef621f00621e007110621e00621f0070ef621d0070ef7f55000055010055027f55fe
:4005400003807c05497c04317f1070ef500067500357337c0564500167500357ce7c056470ef207f380210084f56fc00d00456fc01182070ef62e30010082839ffa01f4f87
:4005800048fc01a003711054fd18207509001008284f59fd610018207509008fd738fc703f71c07f760c3c0c3ba05e500157007c0bca510e7c0a67500157027c0bca500142
:4005c00057b17c0a45500157037c0bca510d7c0a67500157057c0bca500157b17c0a45500157067c0bca510c7c0a67500157087c0bca500157b57c0a455001570b7c0bca49
:40060000500257c97c0a457e550c00760d3c0d3bbf9a550d00760e3c0e63bf90550c00550d00550e00bf857e43e1807f41e17f7f4333017f4133fe7f4f52fa603d52fb6065
:400640003952fc603552fd6031703f71c07f4f52fa603e52fb603a52fc603652fd6032703f71c07f70bf60d35d3e54005d3a54015d3654025d325403703f71c07f70bf60e1
:40068000d35d33085d3e085d3a085d36085d32085d305d3e54005d3a54015d3654025d325403500049f701a00350015c70fe4133fe18603218603618603a18603e186033f8
:4006c00010703f71c07e70bf60d35d305d3e54005d3a54015d3654025d325403703f71c07f060b0a760a3c0a0aa07d500057007c0bca500257cf7c0a45500157007c0bca58
:40070000510e7c0a67500157027c0bca500157b17c0a45500157037c0bca510d7c0a67500157057c0bca500157b17c0a45500157067c0bca510c7c0a67500157087c0bca9b
:40074000500157b37c0a45500157097c0bca510b7c0a675001570b7c0bca500257c97c0a457e550b008009550a003c0b64aff4760c3c0c3bbf76550c00760d3c0d3bbf6ce6
:40078000550d00760e3c0e63bf62550b00550c00550d00550e00bf547e43e1087f41e1f77f432b017f412bfe7f60295b602d7f602a5b602e7f5d2e5c5d2a7f4f38035d2b73
:4007c000085d2a085d2e085d285d2e54015d2a5402500049f701a0035001540070fe412bfe18602e18602a18602b1820703f71c07e5d285d2e5c5d2a7f760b680bd07d6b3d
:400800000b550a50500057007c0bca500257cf7c0a45500157007c0bca510e7c0a67500157027c0bca500157b17c0a45500157037c0bca510d7c0a67500157057c0bca50ca
:400840000157b17c0a45500157067c0bca510c7c0a67500157087c0bca500157b37c0a45500157097c0bca510a7c0a675001570b7c0bca500257c97c0a457e6b0b550a0056
:40088000550b00760c3c0c3bbf7b550c00760d3c0d3bbf71550d00760e3c0e63bf67550b00550c00550d00550e00bf597e43e1027f41e1fd7f4323017f4123fe7f60215b46
:4008c00060257f60225b60267f5d265c5d227f4f38035d23085d22085d26085d205d2654015d225402500049f701a0035001540070fe4123fe186026186022186023182033
:40090000703f71c07e5d205d265c5d227f21034f085d7721fc2b00607718703f71c07f21fc4f085d752107480004b00e4174fe2b00607518703f71c07f2700182b00607539
:4009400043740118703f71c07f4177fc7f50018003500062d0002900a0062600ef80042e001051006004703f71c07f62d00036001051006004703f71c07f62d00051007383
:400980002110a0035001703f71c07f50018003500062d0002900a0062600f780042e000851006004703f71c07f62d00036000851006004703f71c07f62d000510073210800
:4009c000a0035001703f71c07f50018003500062d0002900a0062600fb80042e000451006004703f71c07f62d00036000451006004703f71c07f62d0005100732104a00356
:400a00005001703f71c07f50018003500062d0002900a0062600fd80042e000251006004703f71c07f62d00036000251006004703f71c07f62d0005100732102a00350016b
:400a4000703f71c07f081028b00420187f9044201875dff2748fef303132333435363738394142434445460867676767210fffe7902118210fffe0901a7f4b9fea5b9fe716
:400a80007f70bf60d35200a0069008758ff8703f71c07f90650867676767210f903b18210f40404090337f90510867676767210f900918210f40404090017f0862d00026c6
:400ac00001805101600818210f29102a016008530140218f530160087f0862d0002601802e01205101600818210f29302a01600853014021af530160087f0862d00026010a
:400b000080510160082602f051027110600870ef2e014051016008401057ff2e01505101600840405d08082601c0510160084040402e01505101600840402601c051016020
:400b400008182108a00479bfd3202e027f51027110600870ef187f62d0002602802e027f2603805102711060085103600970ef50fa906750fa906350039f405052905b5065
:400b8000039f3890639061905f50039f2e505a904950029f26505a904150089f0a505a903950019f02505a903150069efa500e9ef6502c9ef250089eee500c9eea50039edd
:400bc000e6505a90157f80c094d4210310fff74f03ff209ed2703f71c07f900c78bffc7f08193a7c010101010871105de070ef21073905d006ffe978bffe187f76057e7a7e
:400c000004a0027e498710a00f406247054187ef4186df5504407e711041450f70ef7101438620438710085d445d46624700711043455070ef733c0520b0057a0550ff6889
:400c4000056d68056d5f06055307550801183c0900a0177a09b013624300624700404041e1fc4386204387107e5504015505e06245ff7e104f2103085d8721fc2b00608729
:400c80001820703f71c07f4187fc7f62d000530943df0143df025504014386204387105505e06241ff6245ff6243015508007f62d000624300624700404041dffe41dffd29
:400cc0004386204387107f62d00051087f62d000580651077f62d0005508007f500057007c0bca500157b97c0a453c1001a09a3c0f00a0063c0f02afe455120150005700a8
:400d00007c0bca500257897c0a45500157007c0bca500157c97c0a453c1001a06c3c0f01a0063c0f00afd3551202500057007c0bca500257897c0a45500157007c0bca5071
:400d40000157d97c0a453c1001a03e3c0f00a0063c0f01afd3551204500057007c0bca500257897c0a45500157007c0bca500157e97c0a453c1001a0103c0f01a0063c0f9e
:400d800000afd3550f008f727c0b577f0850c8901678bffc1878bff57f900c78bffc7f08193a7c010101010871105de070ef21073905d006ffe978bffe187f550f0055102c
:400dc00000551101551201551301550b00550a00550c00550d00550e00551400551500551600551700551800551900551a00551b00551c00551d00551e00551f0055200033
:400e0000552100552200552300552400552500552600552700552800552900552a00552b00552f15552e0150027c090d50027c0c7350007c0c8b7c0a0b7c09cd7c098f7c45
:400e400009517c0b5770ef430501710143e020500057007c0bca500257a97c0a45500157007c0bca500257b97c0a453c1001a00b3c0f01afdb3c0f00afd65510003c110151
:400e8000a0153c1102a0213c1103a02d3c1104a0393c1105a0457c0a075511027c13ce5510007c0a0b8fd47c09c95511037c0cdc5510007c09cd8fc37c098b5511047c0e1c
:400ec000f15510007c098f8fb27c094d5511057c125d5510007c09518fa17c0a077c098b5511007c131e5510007c0a0b7c098f8f8a500057007c0bca500157f97c0a453c41
:400f00001001a3563c0f00a0063c0f02afe43c1400b01b3c1500b0163c1600b011500157007c0bca5003571f7c0a458fc5500057007c0bca500257097c0a45500157007c17
:400f40000bca51167c0a67500157027c0bca500157b17c0a45500157037c0bca51157c0a67500157057c0bca500157b17c0a45500157067c0bca51147c0a673c1001a2da9e
:400f80003c0f01a0063c0f00afa43c1700b00d3c1800b0083c1900b00381a8500057007c0bca500257197c0a45500157007c0bca51197c0a67500157027c0bca500157b12b
:400fc0007c0a45500157037c0bca51187c0a67500157057c0bca500157b17c0a45500157067c0bca51177c0a673c1001a26c3c0f00a0063c0f01afa43c1a00b00d3c1b0009
:40100000b0083c1c00b003813a500057007c0bca500257297c0a45500157007c0bca511c7c0a67500157027c0bca500157b17c0a45500157037c0bca511b7c0a675001572e
:40104000057c0bca500157b17c0a45500157067c0bca511a7c0a673c1001a1fe3c0f01a0063c0f00afa43c1d00b00d3c1e00b0083c1f00b00380cc500057007c0bca500257
:4010800057397c0a45500157007c0bca511f7c0a67500157027c0bca500157b17c0a45500157037c0bca511e7c0a67500157057c0bca500157b17c0a45500157067c0bcae7
:4010c000511d7c0a673c1001a1903c0f00a0063c0f01afa43c2000b00d3c2100b0083c2200b003805e500057007c0bca500257497c0a45500157007c0bca51227c0a67500c
:401100000157027c0bca500157b17c0a45500157037c0bca51217c0a67500157057c0bca500157b17c0a45500157067c0bca51207c0a673c1001a1223c0f01a0063c0f00b9
:40114000afa4500057007c0bca500257597c0a45500157007c0bca51257c0a67500157027c0bca500157b17c0a45500157037c0bca51247c0a67500157057c0bca500157d8
:40118000b17c0a45500157067c0bca51237c0a673c1001a0c53c0f00a0063c0f01afa4500057007c0bca500257697c0a45500157007c0bca51287c0a67500157027c0bcae2
:4011c000500157b17c0a45500157037c0bca51277c0a67500157057c0bca500157b17c0a45500157067c0bca51267c0a673c1001a0683c0f01a0063c0f00afa45000570059
:401200007c0bca500257797c0a45500157007c0bca512b7c0a67500157027c0bca500157b17c0a45500157037c0bca512a7c0a67500157057c0bca500157b17c0a45500118
:4012400057067c0bca51297c0a673c1001a00b3c0f00acda3c0f01afa47c0b577f500057007c0bca500257df7c0a45500157007c0bca500257ef7c0a453c1001a0553c0f60
:4012800000a0063c0f02afd67c0b57500057007c0bca500257ff7c0a4550ff7c0d8c7c0cc7affc7c0ccd532f5a2e062e087c0cd5552f03652f500157007c0bca512f7c0afd
:4012c0006780013c1001a00b3c0f01a0063c0f00aff27c0b577f7c0cc7affc7c0ccd532d5a2c062c087c0cd5512f3a2dc008512e3a2cc0027f550f008ffb7c0cc7affc7cae
:401300000ccd532d5a2c062c087c0cd5512f3a2dc008512e3a2cc0027f550f018ffb500057007c0bca500257a97c0a45500157007c0bca500157a07c0a459f9a3c1001a02c
:401340008a3c0f00a0063c0f02afd47c0b57500057007c0bca500257cf7c0a453c1201a02b3c1202a03b3c1204a04b550b00550a00550c00550d00550e009f5a3c1001a0bc
:401380004a3c0f00afc63c0f01afe17c06287c06309f673c0f00aff47c06347c14de8fcc7c08ad7c08b59f523c0f00aff47c08b97c14de8fb77c07997c07a19f3d3c0f00d7
:4013c000aff47c07a57c14de8fa27c0b577f500057007c0bca500257997c0a45500157007c0bca500157a07c0a453c1001a0883c0f00a0063c0f02afd67c0b575000570058
:401400007c0bca500257cf7c0a453c1201a0313c1202a0063c1204a0059037800590458001550b00550a00550c00550d00550e003c1001a0423c0f00afc03c0f01afe37c41
:4014400006287c06303c0f00aff67c06347c14de8fd07c08ad7c08b53c0f00aff67c08b97c14de7f7c07997c07a13c0f00aff67c07a57c14de7f7c0b577f51253a0ed0174e
:40148000a003c05a51243a0dd00da003c05051233a0cd003c0485f250e5f240d5f230c803d510e3a28d017a003c033510d3a27a005d00bc029510c3a26d003c0215f280eb5
:4014c0005f270d5f260c8016512b020e67532b512a020d67532a5129020c6753297f3c1301a0163c1302a0463c1303a0553c1304a0643c1305a0737f5f140c5f150d5f1633
:401500000e80065513028ff05f230c5f240d5f250e5f260c5f270d5f280e5f290c5f2a0d5f2b0e8fdf9f539f789f9d8fd75f170c5f180d5f190e9f429f679f8c5513038f52
:40154000b75f1a0c5f1b0d5f1c0e9f2e9f539f785513048fa35f1d0c5f1e0d5f1f0e9f1a9f3f9f645513058f8f5f200c5f210d5f220e9f069f2b9f505513018f7b50327c72
:401580000d8c5d0421013901a0113c0f00a005550f007e551000550f017e551001550f027e7eff003030303030303030303030303030303030303030303030303030303003
:4015c00030303030303030303030303030303030303030303030303030303030303030303030303030303030303030303030303030303030303030303030303030303030eb
:4016000030303030303030303030303030303030303030303030303030303030303030303030303030303030303030303030303030303030303030303030303030303030aa
:40164000303030303030303030303030303030303030303030303030303030303030303030303030303030303030303030303030303030303030303030303030303030306a
:40168000303030303030303030303030303030303030303030303030303030303030303030303030303030303030303030303030303030303030303030303030303030302a
:020000040010ea
:020000040020da
:02000000596144
:00000001ff
